{
	"errors.sol": {
		"OwnershipContract": {
			"abi": [
				{
					"inputs": [],
					"stateMutability": "nonpayable",
					"type": "constructor"
				},
				{
					"inputs": [],
					"name": "activate",
					"outputs": [],
					"stateMutability": "nonpayable",
					"type": "function"
				},
				{
					"inputs": [],
					"name": "checkStatus",
					"outputs": [],
					"stateMutability": "view",
					"type": "function"
				},
				{
					"inputs": [],
					"name": "deactivate",
					"outputs": [],
					"stateMutability": "nonpayable",
					"type": "function"
				},
				{
					"inputs": [],
					"name": "isActive",
					"outputs": [
						{
							"internalType": "bool",
							"name": "",
							"type": "bool"
						}
					],
					"stateMutability": "view",
					"type": "function"
				},
				{
					"inputs": [],
					"name": "owner",
					"outputs": [
						{
							"internalType": "address",
							"name": "",
							"type": "address"
						}
					],
					"stateMutability": "view",
					"type": "function"
				},
				{
					"inputs": [],
					"name": "verifyOwner",
					"outputs": [],
					"stateMutability": "view",
					"type": "function"
				}
			],
			"devdoc": {
				"kind": "dev",
				"methods": {},
				"version": 1
			},
			"evm": {
				"assembly": "    /* \"errors.sol\":61:812  contract OwnershipContract {... */\n  mstore(0x40, 0x80)\n    /* \"errors.sol\":151:229  constructor() {... */\n  callvalue\n  dup1\n  iszero\n  tag_1\n  jumpi\n  0x00\n  dup1\n  revert\ntag_1:\n  pop\n    /* \"errors.sol\":184:194  msg.sender */\n  caller\n    /* \"errors.sol\":176:181  owner */\n  0x00\n  dup1\n    /* \"errors.sol\":176:194  owner = msg.sender */\n  0x0100\n  exp\n  dup2\n  sload\n  dup2\n  0xffffffffffffffffffffffffffffffffffffffff\n  mul\n  not\n  and\n  swap1\n  dup4\n  0xffffffffffffffffffffffffffffffffffffffff\n  and\n  mul\n  or\n  swap1\n  sstore\n  pop\n    /* \"errors.sol\":216:221  false */\n  0x00\n    /* \"errors.sol\":205:213  isActive */\n  dup1\n  0x14\n    /* \"errors.sol\":205:221  isActive = false */\n  0x0100\n  exp\n  dup2\n  sload\n  dup2\n  0xff\n  mul\n  not\n  and\n  swap1\n  dup4\n  iszero\n  iszero\n  mul\n  or\n  swap1\n  sstore\n  pop\n    /* \"errors.sol\":61:812  contract OwnershipContract {... */\n  dataSize(sub_0)\n  dup1\n  dataOffset(sub_0)\n  0x00\n  codecopy\n  0x00\n  return\nstop\n\nsub_0: assembly {\n        /* \"errors.sol\":61:812  contract OwnershipContract {... */\n      mstore(0x40, 0x80)\n      callvalue\n      dup1\n      iszero\n      tag_1\n      jumpi\n      0x00\n      dup1\n      revert\n    tag_1:\n      pop\n      jumpi(tag_2, lt(calldatasize, 0x04))\n      shr(0xe0, calldataload(0x00))\n      dup1\n      0x0f15f4c0\n      eq\n      tag_3\n      jumpi\n      dup1\n      0x22f3e2d4\n      eq\n      tag_4\n      jumpi\n      dup1\n      0x33476e36\n      eq\n      tag_5\n      jumpi\n      dup1\n      0x3b7104f2\n      eq\n      tag_6\n      jumpi\n      dup1\n      0x51b42b00\n      eq\n      tag_7\n      jumpi\n      dup1\n      0x8da5cb5b\n      eq\n      tag_8\n      jumpi\n    tag_2:\n      0x00\n      dup1\n      revert\n        /* \"errors.sol\":353:424  function activate() public onlyOwner {... */\n    tag_3:\n      tag_9\n      tag_10\n      jump\t// in\n    tag_9:\n      stop\n        /* \"errors.sol\":122:142  bool public isActive */\n    tag_4:\n      tag_11\n      tag_12\n      jump\t// in\n    tag_11:\n      mload(0x40)\n      tag_13\n      swap2\n      swap1\n      tag_14\n      jump\t// in\n    tag_13:\n      mload(0x40)\n      dup1\n      swap2\n      sub\n      swap1\n      return\n        /* \"errors.sol\":728:809  function verifyOwner() public view {... */\n    tag_5:\n      tag_15\n      tag_16\n      jump\t// in\n    tag_15:\n      stop\n        /* \"errors.sol\":514:720  function checkStatus() public view {... */\n    tag_6:\n      tag_17\n      tag_18\n      jump\t// in\n    tag_17:\n      stop\n        /* \"errors.sol\":432:506  function deactivate() public onlyOwner {... */\n    tag_7:\n      tag_19\n      tag_20\n      jump\t// in\n    tag_19:\n      stop\n        /* \"errors.sol\":95:115  address public owner */\n    tag_8:\n      tag_21\n      tag_22\n      jump\t// in\n    tag_21:\n      mload(0x40)\n      tag_23\n      swap2\n      swap1\n      tag_24\n      jump\t// in\n    tag_23:\n      mload(0x40)\n      dup1\n      swap2\n      sub\n      swap1\n      return\n        /* \"errors.sol\":353:424  function activate() public onlyOwner {... */\n    tag_10:\n        /* \"errors.sol\":289:294  owner */\n      0x00\n      dup1\n      sload\n      swap1\n      0x0100\n      exp\n      swap1\n      div\n      0xffffffffffffffffffffffffffffffffffffffff\n      and\n        /* \"errors.sol\":275:294  msg.sender == owner */\n      0xffffffffffffffffffffffffffffffffffffffff\n      and\n        /* \"errors.sol\":275:285  msg.sender */\n      caller\n        /* \"errors.sol\":275:294  msg.sender == owner */\n      0xffffffffffffffffffffffffffffffffffffffff\n      and\n      eq\n        /* \"errors.sol\":267:325  require(msg.sender == owner, \"Only the owner can access.\") */\n      tag_26\n      jumpi\n      mload(0x40)\n      0x08c379a000000000000000000000000000000000000000000000000000000000\n      dup2\n      mstore\n      0x04\n      add\n      tag_27\n      swap1\n      tag_28\n      jump\t// in\n    tag_27:\n      mload(0x40)\n      dup1\n      swap2\n      sub\n      swap1\n      revert\n    tag_26:\n        /* \"errors.sol\":412:416  true */\n      0x01\n        /* \"errors.sol\":401:409  isActive */\n      0x00\n      0x14\n        /* \"errors.sol\":401:416  isActive = true */\n      0x0100\n      exp\n      dup2\n      sload\n      dup2\n      0xff\n      mul\n      not\n      and\n      swap1\n      dup4\n      iszero\n      iszero\n      mul\n      or\n      swap1\n      sstore\n      pop\n        /* \"errors.sol\":353:424  function activate() public onlyOwner {... */\n      jump\t// out\n        /* \"errors.sol\":122:142  bool public isActive */\n    tag_12:\n      0x00\n      0x14\n      swap1\n      sload\n      swap1\n      0x0100\n      exp\n      swap1\n      div\n      0xff\n      and\n      dup2\n      jump\t// out\n        /* \"errors.sol\":728:809  function verifyOwner() public view {... */\n    tag_16:\n        /* \"errors.sol\":795:800  owner */\n      0x00\n      dup1\n      sload\n      swap1\n      0x0100\n      exp\n      swap1\n      div\n      0xffffffffffffffffffffffffffffffffffffffff\n      and\n        /* \"errors.sol\":781:800  msg.sender == owner */\n      0xffffffffffffffffffffffffffffffffffffffff\n      and\n        /* \"errors.sol\":781:791  msg.sender */\n      caller\n        /* \"errors.sol\":781:800  msg.sender == owner */\n      0xffffffffffffffffffffffffffffffffffffffff\n      and\n      eq\n        /* \"errors.sol\":774:801  assert(msg.sender == owner) */\n      tag_31\n      jumpi\n      tag_32\n      tag_33\n      jump\t// in\n    tag_32:\n    tag_31:\n        /* \"errors.sol\":728:809  function verifyOwner() public view {... */\n      jump\t// out\n        /* \"errors.sol\":514:720  function checkStatus() public view {... */\n    tag_18:\n        /* \"errors.sol\":576:581  false */\n      0x00\n        /* \"errors.sol\":564:581  isActive == false */\n      iszero\n      iszero\n        /* \"errors.sol\":564:572  isActive */\n      0x00\n      0x14\n      swap1\n      sload\n      swap1\n      0x0100\n      exp\n      swap1\n      div\n      0xff\n      and\n        /* \"errors.sol\":564:581  isActive == false */\n      iszero\n      iszero\n      sub\n        /* \"errors.sol\":560:713  if (isActive == false) {... */\n      tag_35\n      jumpi\n        /* \"errors.sol\":598:635  revert(\"The contract is not active.\") */\n      mload(0x40)\n      0x08c379a000000000000000000000000000000000000000000000000000000000\n      dup2\n      mstore\n      0x04\n      add\n      tag_36\n      swap1\n      tag_37\n      jump\t// in\n    tag_36:\n      mload(0x40)\n      dup1\n      swap2\n      sub\n      swap1\n      revert\n        /* \"errors.sol\":560:713  if (isActive == false) {... */\n    tag_35:\n        /* \"errors.sol\":668:701  revert(\"The contract is active.\") */\n      mload(0x40)\n      0x08c379a000000000000000000000000000000000000000000000000000000000\n      dup2\n      mstore\n      0x04\n      add\n      tag_39\n      swap1\n      tag_40\n      jump\t// in\n    tag_39:\n      mload(0x40)\n      dup1\n      swap2\n      sub\n      swap1\n      revert\n        /* \"errors.sol\":432:506  function deactivate() public onlyOwner {... */\n    tag_20:\n        /* \"errors.sol\":289:294  owner */\n      0x00\n      dup1\n      sload\n      swap1\n      0x0100\n      exp\n      swap1\n      div\n      0xffffffffffffffffffffffffffffffffffffffff\n      and\n        /* \"errors.sol\":275:294  msg.sender == owner */\n      0xffffffffffffffffffffffffffffffffffffffff\n      and\n        /* \"errors.sol\":275:285  msg.sender */\n      caller\n        /* \"errors.sol\":275:294  msg.sender == owner */\n      0xffffffffffffffffffffffffffffffffffffffff\n      and\n      eq\n        /* \"errors.sol\":267:325  require(msg.sender == owner, \"Only the owner can access.\") */\n      tag_42\n      jumpi\n      mload(0x40)\n      0x08c379a000000000000000000000000000000000000000000000000000000000\n      dup2\n      mstore\n      0x04\n      add\n      tag_43\n      swap1\n      tag_28\n      jump\t// in\n    tag_43:\n      mload(0x40)\n      dup1\n      swap2\n      sub\n      swap1\n      revert\n    tag_42:\n        /* \"errors.sol\":493:498  false */\n      0x00\n        /* \"errors.sol\":482:490  isActive */\n      dup1\n      0x14\n        /* \"errors.sol\":482:498  isActive = false */\n      0x0100\n      exp\n      dup2\n      sload\n      dup2\n      0xff\n      mul\n      not\n      and\n      swap1\n      dup4\n      iszero\n      iszero\n      mul\n      or\n      swap1\n      sstore\n      pop\n        /* \"errors.sol\":432:506  function deactivate() public onlyOwner {... */\n      jump\t// out\n        /* \"errors.sol\":95:115  address public owner */\n    tag_22:\n      0x00\n      dup1\n      sload\n      swap1\n      0x0100\n      exp\n      swap1\n      div\n      0xffffffffffffffffffffffffffffffffffffffff\n      and\n      dup2\n      jump\t// out\n        /* \"#utility.yul\":7:97   */\n    tag_45:\n        /* \"#utility.yul\":41:48   */\n      0x00\n        /* \"#utility.yul\":84:89   */\n      dup2\n        /* \"#utility.yul\":77:90   */\n      iszero\n        /* \"#utility.yul\":70:91   */\n      iszero\n        /* \"#utility.yul\":59:91   */\n      swap1\n      pop\n        /* \"#utility.yul\":7:97   */\n      swap2\n      swap1\n      pop\n      jump\t// out\n        /* \"#utility.yul\":103:212   */\n    tag_46:\n        /* \"#utility.yul\":184:205   */\n      tag_60\n        /* \"#utility.yul\":199:204   */\n      dup2\n        /* \"#utility.yul\":184:205   */\n      tag_45\n      jump\t// in\n    tag_60:\n        /* \"#utility.yul\":179:182   */\n      dup3\n        /* \"#utility.yul\":172:206   */\n      mstore\n        /* \"#utility.yul\":103:212   */\n      pop\n      pop\n      jump\t// out\n        /* \"#utility.yul\":218:428   */\n    tag_14:\n        /* \"#utility.yul\":305:309   */\n      0x00\n        /* \"#utility.yul\":343:345   */\n      0x20\n        /* \"#utility.yul\":332:341   */\n      dup3\n        /* \"#utility.yul\":328:346   */\n      add\n        /* \"#utility.yul\":320:346   */\n      swap1\n      pop\n        /* \"#utility.yul\":356:421   */\n      tag_62\n        /* \"#utility.yul\":418:419   */\n      0x00\n        /* \"#utility.yul\":407:416   */\n      dup4\n        /* \"#utility.yul\":403:420   */\n      add\n        /* \"#utility.yul\":394:400   */\n      dup5\n        /* \"#utility.yul\":356:421   */\n      tag_46\n      jump\t// in\n    tag_62:\n        /* \"#utility.yul\":218:428   */\n      swap3\n      swap2\n      pop\n      pop\n      jump\t// out\n        /* \"#utility.yul\":434:560   */\n    tag_47:\n        /* \"#utility.yul\":471:478   */\n      0x00\n        /* \"#utility.yul\":511:553   */\n      0xffffffffffffffffffffffffffffffffffffffff\n        /* \"#utility.yul\":504:509   */\n      dup3\n        /* \"#utility.yul\":500:554   */\n      and\n        /* \"#utility.yul\":489:554   */\n      swap1\n      pop\n        /* \"#utility.yul\":434:560   */\n      swap2\n      swap1\n      pop\n      jump\t// out\n        /* \"#utility.yul\":566:662   */\n    tag_48:\n        /* \"#utility.yul\":603:610   */\n      0x00\n        /* \"#utility.yul\":632:656   */\n      tag_65\n        /* \"#utility.yul\":650:655   */\n      dup3\n        /* \"#utility.yul\":632:656   */\n      tag_47\n      jump\t// in\n    tag_65:\n        /* \"#utility.yul\":621:656   */\n      swap1\n      pop\n        /* \"#utility.yul\":566:662   */\n      swap2\n      swap1\n      pop\n      jump\t// out\n        /* \"#utility.yul\":668:786   */\n    tag_49:\n        /* \"#utility.yul\":755:779   */\n      tag_67\n        /* \"#utility.yul\":773:778   */\n      dup2\n        /* \"#utility.yul\":755:779   */\n      tag_48\n      jump\t// in\n    tag_67:\n        /* \"#utility.yul\":750:753   */\n      dup3\n        /* \"#utility.yul\":743:780   */\n      mstore\n        /* \"#utility.yul\":668:786   */\n      pop\n      pop\n      jump\t// out\n        /* \"#utility.yul\":792:1014   */\n    tag_24:\n        /* \"#utility.yul\":885:889   */\n      0x00\n        /* \"#utility.yul\":923:925   */\n      0x20\n        /* \"#utility.yul\":912:921   */\n      dup3\n        /* \"#utility.yul\":908:926   */\n      add\n        /* \"#utility.yul\":900:926   */\n      swap1\n      pop\n        /* \"#utility.yul\":936:1007   */\n      tag_69\n        /* \"#utility.yul\":1004:1005   */\n      0x00\n        /* \"#utility.yul\":993:1002   */\n      dup4\n        /* \"#utility.yul\":989:1006   */\n      add\n        /* \"#utility.yul\":980:986   */\n      dup5\n        /* \"#utility.yul\":936:1007   */\n      tag_49\n      jump\t// in\n    tag_69:\n        /* \"#utility.yul\":792:1014   */\n      swap3\n      swap2\n      pop\n      pop\n      jump\t// out\n        /* \"#utility.yul\":1020:1189   */\n    tag_50:\n        /* \"#utility.yul\":1104:1115   */\n      0x00\n        /* \"#utility.yul\":1138:1144   */\n      dup3\n        /* \"#utility.yul\":1133:1136   */\n      dup3\n        /* \"#utility.yul\":1126:1145   */\n      mstore\n        /* \"#utility.yul\":1178:1182   */\n      0x20\n        /* \"#utility.yul\":1173:1176   */\n      dup3\n        /* \"#utility.yul\":1169:1183   */\n      add\n        /* \"#utility.yul\":1154:1183   */\n      swap1\n      pop\n        /* \"#utility.yul\":1020:1189   */\n      swap3\n      swap2\n      pop\n      pop\n      jump\t// out\n        /* \"#utility.yul\":1195:1371   */\n    tag_51:\n        /* \"#utility.yul\":1335:1363   */\n      0x4f6e6c7920746865206f776e65722063616e206163636573732e000000000000\n        /* \"#utility.yul\":1331:1332   */\n      0x00\n        /* \"#utility.yul\":1323:1329   */\n      dup3\n        /* \"#utility.yul\":1319:1333   */\n      add\n        /* \"#utility.yul\":1312:1364   */\n      mstore\n        /* \"#utility.yul\":1195:1371   */\n      pop\n      jump\t// out\n        /* \"#utility.yul\":1377:1743   */\n    tag_52:\n        /* \"#utility.yul\":1519:1522   */\n      0x00\n        /* \"#utility.yul\":1540:1607   */\n      tag_73\n        /* \"#utility.yul\":1604:1606   */\n      0x1a\n        /* \"#utility.yul\":1599:1602   */\n      dup4\n        /* \"#utility.yul\":1540:1607   */\n      tag_50\n      jump\t// in\n    tag_73:\n        /* \"#utility.yul\":1533:1607   */\n      swap2\n      pop\n        /* \"#utility.yul\":1616:1709   */\n      tag_74\n        /* \"#utility.yul\":1705:1708   */\n      dup3\n        /* \"#utility.yul\":1616:1709   */\n      tag_51\n      jump\t// in\n    tag_74:\n        /* \"#utility.yul\":1734:1736   */\n      0x20\n        /* \"#utility.yul\":1729:1732   */\n      dup3\n        /* \"#utility.yul\":1725:1737   */\n      add\n        /* \"#utility.yul\":1718:1737   */\n      swap1\n      pop\n        /* \"#utility.yul\":1377:1743   */\n      swap2\n      swap1\n      pop\n      jump\t// out\n        /* \"#utility.yul\":1749:2168   */\n    tag_28:\n        /* \"#utility.yul\":1915:1919   */\n      0x00\n        /* \"#utility.yul\":1953:1955   */\n      0x20\n        /* \"#utility.yul\":1942:1951   */\n      dup3\n        /* \"#utility.yul\":1938:1956   */\n      add\n        /* \"#utility.yul\":1930:1956   */\n      swap1\n      pop\n        /* \"#utility.yul\":2002:2011   */\n      dup2\n        /* \"#utility.yul\":1996:2000   */\n      dup2\n        /* \"#utility.yul\":1992:2012   */\n      sub\n        /* \"#utility.yul\":1988:1989   */\n      0x00\n        /* \"#utility.yul\":1977:1986   */\n      dup4\n        /* \"#utility.yul\":1973:1990   */\n      add\n        /* \"#utility.yul\":1966:2013   */\n      mstore\n        /* \"#utility.yul\":2030:2161   */\n      tag_76\n        /* \"#utility.yul\":2156:2160   */\n      dup2\n        /* \"#utility.yul\":2030:2161   */\n      tag_52\n      jump\t// in\n    tag_76:\n        /* \"#utility.yul\":2022:2161   */\n      swap1\n      pop\n        /* \"#utility.yul\":1749:2168   */\n      swap2\n      swap1\n      pop\n      jump\t// out\n        /* \"#utility.yul\":2174:2354   */\n    tag_33:\n        /* \"#utility.yul\":2222:2299   */\n      0x4e487b7100000000000000000000000000000000000000000000000000000000\n        /* \"#utility.yul\":2219:2220   */\n      0x00\n        /* \"#utility.yul\":2212:2300   */\n      mstore\n        /* \"#utility.yul\":2319:2323   */\n      0x01\n        /* \"#utility.yul\":2316:2317   */\n      0x04\n        /* \"#utility.yul\":2309:2324   */\n      mstore\n        /* \"#utility.yul\":2343:2347   */\n      0x24\n        /* \"#utility.yul\":2340:2341   */\n      0x00\n        /* \"#utility.yul\":2333:2348   */\n      revert\n        /* \"#utility.yul\":2360:2537   */\n    tag_53:\n        /* \"#utility.yul\":2500:2529   */\n      0x54686520636f6e7472616374206973206e6f74206163746976652e0000000000\n        /* \"#utility.yul\":2496:2497   */\n      0x00\n        /* \"#utility.yul\":2488:2494   */\n      dup3\n        /* \"#utility.yul\":2484:2498   */\n      add\n        /* \"#utility.yul\":2477:2530   */\n      mstore\n        /* \"#utility.yul\":2360:2537   */\n      pop\n      jump\t// out\n        /* \"#utility.yul\":2543:2909   */\n    tag_54:\n        /* \"#utility.yul\":2685:2688   */\n      0x00\n        /* \"#utility.yul\":2706:2773   */\n      tag_80\n        /* \"#utility.yul\":2770:2772   */\n      0x1b\n        /* \"#utility.yul\":2765:2768   */\n      dup4\n        /* \"#utility.yul\":2706:2773   */\n      tag_50\n      jump\t// in\n    tag_80:\n        /* \"#utility.yul\":2699:2773   */\n      swap2\n      pop\n        /* \"#utility.yul\":2782:2875   */\n      tag_81\n        /* \"#utility.yul\":2871:2874   */\n      dup3\n        /* \"#utility.yul\":2782:2875   */\n      tag_53\n      jump\t// in\n    tag_81:\n        /* \"#utility.yul\":2900:2902   */\n      0x20\n        /* \"#utility.yul\":2895:2898   */\n      dup3\n        /* \"#utility.yul\":2891:2903   */\n      add\n        /* \"#utility.yul\":2884:2903   */\n      swap1\n      pop\n        /* \"#utility.yul\":2543:2909   */\n      swap2\n      swap1\n      pop\n      jump\t// out\n        /* \"#utility.yul\":2915:3334   */\n    tag_37:\n        /* \"#utility.yul\":3081:3085   */\n      0x00\n        /* \"#utility.yul\":3119:3121   */\n      0x20\n        /* \"#utility.yul\":3108:3117   */\n      dup3\n        /* \"#utility.yul\":3104:3122   */\n      add\n        /* \"#utility.yul\":3096:3122   */\n      swap1\n      pop\n        /* \"#utility.yul\":3168:3177   */\n      dup2\n        /* \"#utility.yul\":3162:3166   */\n      dup2\n        /* \"#utility.yul\":3158:3178   */\n      sub\n        /* \"#utility.yul\":3154:3155   */\n      0x00\n        /* \"#utility.yul\":3143:3152   */\n      dup4\n        /* \"#utility.yul\":3139:3156   */\n      add\n        /* \"#utility.yul\":3132:3179   */\n      mstore\n        /* \"#utility.yul\":3196:3327   */\n      tag_83\n        /* \"#utility.yul\":3322:3326   */\n      dup2\n        /* \"#utility.yul\":3196:3327   */\n      tag_54\n      jump\t// in\n    tag_83:\n        /* \"#utility.yul\":3188:3327   */\n      swap1\n      pop\n        /* \"#utility.yul\":2915:3334   */\n      swap2\n      swap1\n      pop\n      jump\t// out\n        /* \"#utility.yul\":3340:3513   */\n    tag_55:\n        /* \"#utility.yul\":3480:3505   */\n      0x54686520636f6e7472616374206973206163746976652e000000000000000000\n        /* \"#utility.yul\":3476:3477   */\n      0x00\n        /* \"#utility.yul\":3468:3474   */\n      dup3\n        /* \"#utility.yul\":3464:3478   */\n      add\n        /* \"#utility.yul\":3457:3506   */\n      mstore\n        /* \"#utility.yul\":3340:3513   */\n      pop\n      jump\t// out\n        /* \"#utility.yul\":3519:3885   */\n    tag_56:\n        /* \"#utility.yul\":3661:3664   */\n      0x00\n        /* \"#utility.yul\":3682:3749   */\n      tag_86\n        /* \"#utility.yul\":3746:3748   */\n      0x17\n        /* \"#utility.yul\":3741:3744   */\n      dup4\n        /* \"#utility.yul\":3682:3749   */\n      tag_50\n      jump\t// in\n    tag_86:\n        /* \"#utility.yul\":3675:3749   */\n      swap2\n      pop\n        /* \"#utility.yul\":3758:3851   */\n      tag_87\n        /* \"#utility.yul\":3847:3850   */\n      dup3\n        /* \"#utility.yul\":3758:3851   */\n      tag_55\n      jump\t// in\n    tag_87:\n        /* \"#utility.yul\":3876:3878   */\n      0x20\n        /* \"#utility.yul\":3871:3874   */\n      dup3\n        /* \"#utility.yul\":3867:3879   */\n      add\n        /* \"#utility.yul\":3860:3879   */\n      swap1\n      pop\n        /* \"#utility.yul\":3519:3885   */\n      swap2\n      swap1\n      pop\n      jump\t// out\n        /* \"#utility.yul\":3891:4310   */\n    tag_40:\n        /* \"#utility.yul\":4057:4061   */\n      0x00\n        /* \"#utility.yul\":4095:4097   */\n      0x20\n        /* \"#utility.yul\":4084:4093   */\n      dup3\n        /* \"#utility.yul\":4080:4098   */\n      add\n        /* \"#utility.yul\":4072:4098   */\n      swap1\n      pop\n        /* \"#utility.yul\":4144:4153   */\n      dup2\n        /* \"#utility.yul\":4138:4142   */\n      dup2\n        /* \"#utility.yul\":4134:4154   */\n      sub\n        /* \"#utility.yul\":4130:4131   */\n      0x00\n        /* \"#utility.yul\":4119:4128   */\n      dup4\n        /* \"#utility.yul\":4115:4132   */\n      add\n        /* \"#utility.yul\":4108:4155   */\n      mstore\n        /* \"#utility.yul\":4172:4303   */\n      tag_89\n        /* \"#utility.yul\":4298:4302   */\n      dup2\n        /* \"#utility.yul\":4172:4303   */\n      tag_56\n      jump\t// in\n    tag_89:\n        /* \"#utility.yul\":4164:4303   */\n      swap1\n      pop\n        /* \"#utility.yul\":3891:4310   */\n      swap2\n      swap1\n      pop\n      jump\t// out\n\n    auxdata: 0xa264697066735822122008ad2e3e5b6332e1e7842639d0b4de200ae5d700e13ed0a905712259c80e845164736f6c634300081a0033\n}\n",
				"bytecode": {
					"linkReferences": {},
					"object": "6080604052348015600e575f80fd5b50335f806101000a81548173ffffffffffffffffffffffffffffffffffffffff021916908373ffffffffffffffffffffffffffffffffffffffff1602179055505f8060146101000a81548160ff021916908315150217905550610570806100745f395ff3fe608060405234801561000f575f80fd5b5060043610610060575f3560e01c80630f15f4c01461006457806322f3e2d41461006e57806333476e361461008c5780633b7104f21461009657806351b42b00146100a05780638da5cb5b146100aa575b5f80fd5b61006c6100c8565b005b610076610171565b6040516100839190610354565b60405180910390f35b610094610183565b005b61009e6101e0565b005b6100a861026f565b005b6100b2610317565b6040516100bf91906103ac565b60405180910390f35b5f8054906101000a900473ffffffffffffffffffffffffffffffffffffffff1673ffffffffffffffffffffffffffffffffffffffff163373ffffffffffffffffffffffffffffffffffffffff1614610155576040517f08c379a000000000000000000000000000000000000000000000000000000000815260040161014c9061041f565b60405180910390fd5b60015f60146101000a81548160ff021916908315150217905550565b5f60149054906101000a900460ff1681565b5f8054906101000a900473ffffffffffffffffffffffffffffffffffffffff1673ffffffffffffffffffffffffffffffffffffffff163373ffffffffffffffffffffffffffffffffffffffff16146101de576101dd61043d565b5b565b5f15155f60149054906101000a900460ff16151503610234576040517f08c379a000000000000000000000000000000000000000000000000000000000815260040161022b906104b4565b60405180910390fd5b6040517f08c379a00000000000000000000000000000000000000000000000000000000081526004016102669061051c565b60405180910390fd5b5f8054906101000a900473ffffffffffffffffffffffffffffffffffffffff1673ffffffffffffffffffffffffffffffffffffffff163373ffffffffffffffffffffffffffffffffffffffff16146102fc576040517f08c379a00000000000000000000000000000000000000000000000000000000081526004016102f39061041f565b60405180910390fd5b5f8060146101000a81548160ff021916908315150217905550565b5f8054906101000a900473ffffffffffffffffffffffffffffffffffffffff1681565b5f8115159050919050565b61034e8161033a565b82525050565b5f6020820190506103675f830184610345565b92915050565b5f73ffffffffffffffffffffffffffffffffffffffff82169050919050565b5f6103968261036d565b9050919050565b6103a68161038c565b82525050565b5f6020820190506103bf5f83018461039d565b92915050565b5f82825260208201905092915050565b7f4f6e6c7920746865206f776e65722063616e206163636573732e0000000000005f82015250565b5f610409601a836103c5565b9150610414826103d5565b602082019050919050565b5f6020820190508181035f830152610436816103fd565b9050919050565b7f4e487b71000000000000000000000000000000000000000000000000000000005f52600160045260245ffd5b7f54686520636f6e7472616374206973206e6f74206163746976652e00000000005f82015250565b5f61049e601b836103c5565b91506104a98261046a565b602082019050919050565b5f6020820190508181035f8301526104cb81610492565b9050919050565b7f54686520636f6e7472616374206973206163746976652e0000000000000000005f82015250565b5f6105066017836103c5565b9150610511826104d2565b602082019050919050565b5f6020820190508181035f830152610533816104fa565b905091905056fea264697066735822122008ad2e3e5b6332e1e7842639d0b4de200ae5d700e13ed0a905712259c80e845164736f6c634300081a0033",
					"opcodes": "PUSH1 0x80 PUSH1 0x40 MSTORE CALLVALUE DUP1 ISZERO PUSH1 0xE JUMPI PUSH0 DUP1 REVERT JUMPDEST POP CALLER PUSH0 DUP1 PUSH2 0x100 EXP DUP2 SLOAD DUP2 PUSH20 0xFFFFFFFFFFFFFFFFFFFFFFFFFFFFFFFFFFFFFFFF MUL NOT AND SWAP1 DUP4 PUSH20 0xFFFFFFFFFFFFFFFFFFFFFFFFFFFFFFFFFFFFFFFF AND MUL OR SWAP1 SSTORE POP PUSH0 DUP1 PUSH1 0x14 PUSH2 0x100 EXP DUP2 SLOAD DUP2 PUSH1 0xFF MUL NOT AND SWAP1 DUP4 ISZERO ISZERO MUL OR SWAP1 SSTORE POP PUSH2 0x570 DUP1 PUSH2 0x74 PUSH0 CODECOPY PUSH0 RETURN INVALID PUSH1 0x80 PUSH1 0x40 MSTORE CALLVALUE DUP1 ISZERO PUSH2 0xF JUMPI PUSH0 DUP1 REVERT JUMPDEST POP PUSH1 0x4 CALLDATASIZE LT PUSH2 0x60 JUMPI PUSH0 CALLDATALOAD PUSH1 0xE0 SHR DUP1 PUSH4 0xF15F4C0 EQ PUSH2 0x64 JUMPI DUP1 PUSH4 0x22F3E2D4 EQ PUSH2 0x6E JUMPI DUP1 PUSH4 0x33476E36 EQ PUSH2 0x8C JUMPI DUP1 PUSH4 0x3B7104F2 EQ PUSH2 0x96 JUMPI DUP1 PUSH4 0x51B42B00 EQ PUSH2 0xA0 JUMPI DUP1 PUSH4 0x8DA5CB5B EQ PUSH2 0xAA JUMPI JUMPDEST PUSH0 DUP1 REVERT JUMPDEST PUSH2 0x6C PUSH2 0xC8 JUMP JUMPDEST STOP JUMPDEST PUSH2 0x76 PUSH2 0x171 JUMP JUMPDEST PUSH1 0x40 MLOAD PUSH2 0x83 SWAP2 SWAP1 PUSH2 0x354 JUMP JUMPDEST PUSH1 0x40 MLOAD DUP1 SWAP2 SUB SWAP1 RETURN JUMPDEST PUSH2 0x94 PUSH2 0x183 JUMP JUMPDEST STOP JUMPDEST PUSH2 0x9E PUSH2 0x1E0 JUMP JUMPDEST STOP JUMPDEST PUSH2 0xA8 PUSH2 0x26F JUMP JUMPDEST STOP JUMPDEST PUSH2 0xB2 PUSH2 0x317 JUMP JUMPDEST PUSH1 0x40 MLOAD PUSH2 0xBF SWAP2 SWAP1 PUSH2 0x3AC JUMP JUMPDEST PUSH1 0x40 MLOAD DUP1 SWAP2 SUB SWAP1 RETURN JUMPDEST PUSH0 DUP1 SLOAD SWAP1 PUSH2 0x100 EXP SWAP1 DIV PUSH20 0xFFFFFFFFFFFFFFFFFFFFFFFFFFFFFFFFFFFFFFFF AND PUSH20 0xFFFFFFFFFFFFFFFFFFFFFFFFFFFFFFFFFFFFFFFF AND CALLER PUSH20 0xFFFFFFFFFFFFFFFFFFFFFFFFFFFFFFFFFFFFFFFF AND EQ PUSH2 0x155 JUMPI PUSH1 0x40 MLOAD PUSH32 0x8C379A000000000000000000000000000000000000000000000000000000000 DUP2 MSTORE PUSH1 0x4 ADD PUSH2 0x14C SWAP1 PUSH2 0x41F JUMP JUMPDEST PUSH1 0x40 MLOAD DUP1 SWAP2 SUB SWAP1 REVERT JUMPDEST PUSH1 0x1 PUSH0 PUSH1 0x14 PUSH2 0x100 EXP DUP2 SLOAD DUP2 PUSH1 0xFF MUL NOT AND SWAP1 DUP4 ISZERO ISZERO MUL OR SWAP1 SSTORE POP JUMP JUMPDEST PUSH0 PUSH1 0x14 SWAP1 SLOAD SWAP1 PUSH2 0x100 EXP SWAP1 DIV PUSH1 0xFF AND DUP2 JUMP JUMPDEST PUSH0 DUP1 SLOAD SWAP1 PUSH2 0x100 EXP SWAP1 DIV PUSH20 0xFFFFFFFFFFFFFFFFFFFFFFFFFFFFFFFFFFFFFFFF AND PUSH20 0xFFFFFFFFFFFFFFFFFFFFFFFFFFFFFFFFFFFFFFFF AND CALLER PUSH20 0xFFFFFFFFFFFFFFFFFFFFFFFFFFFFFFFFFFFFFFFF AND EQ PUSH2 0x1DE JUMPI PUSH2 0x1DD PUSH2 0x43D JUMP JUMPDEST JUMPDEST JUMP JUMPDEST PUSH0 ISZERO ISZERO PUSH0 PUSH1 0x14 SWAP1 SLOAD SWAP1 PUSH2 0x100 EXP SWAP1 DIV PUSH1 0xFF AND ISZERO ISZERO SUB PUSH2 0x234 JUMPI PUSH1 0x40 MLOAD PUSH32 0x8C379A000000000000000000000000000000000000000000000000000000000 DUP2 MSTORE PUSH1 0x4 ADD PUSH2 0x22B SWAP1 PUSH2 0x4B4 JUMP JUMPDEST PUSH1 0x40 MLOAD DUP1 SWAP2 SUB SWAP1 REVERT JUMPDEST PUSH1 0x40 MLOAD PUSH32 0x8C379A000000000000000000000000000000000000000000000000000000000 DUP2 MSTORE PUSH1 0x4 ADD PUSH2 0x266 SWAP1 PUSH2 0x51C JUMP JUMPDEST PUSH1 0x40 MLOAD DUP1 SWAP2 SUB SWAP1 REVERT JUMPDEST PUSH0 DUP1 SLOAD SWAP1 PUSH2 0x100 EXP SWAP1 DIV PUSH20 0xFFFFFFFFFFFFFFFFFFFFFFFFFFFFFFFFFFFFFFFF AND PUSH20 0xFFFFFFFFFFFFFFFFFFFFFFFFFFFFFFFFFFFFFFFF AND CALLER PUSH20 0xFFFFFFFFFFFFFFFFFFFFFFFFFFFFFFFFFFFFFFFF AND EQ PUSH2 0x2FC JUMPI PUSH1 0x40 MLOAD PUSH32 0x8C379A000000000000000000000000000000000000000000000000000000000 DUP2 MSTORE PUSH1 0x4 ADD PUSH2 0x2F3 SWAP1 PUSH2 0x41F JUMP JUMPDEST PUSH1 0x40 MLOAD DUP1 SWAP2 SUB SWAP1 REVERT JUMPDEST PUSH0 DUP1 PUSH1 0x14 PUSH2 0x100 EXP DUP2 SLOAD DUP2 PUSH1 0xFF MUL NOT AND SWAP1 DUP4 ISZERO ISZERO MUL OR SWAP1 SSTORE POP JUMP JUMPDEST PUSH0 DUP1 SLOAD SWAP1 PUSH2 0x100 EXP SWAP1 DIV PUSH20 0xFFFFFFFFFFFFFFFFFFFFFFFFFFFFFFFFFFFFFFFF AND DUP2 JUMP JUMPDEST PUSH0 DUP2 ISZERO ISZERO SWAP1 POP SWAP2 SWAP1 POP JUMP JUMPDEST PUSH2 0x34E DUP2 PUSH2 0x33A JUMP JUMPDEST DUP3 MSTORE POP POP JUMP JUMPDEST PUSH0 PUSH1 0x20 DUP3 ADD SWAP1 POP PUSH2 0x367 PUSH0 DUP4 ADD DUP5 PUSH2 0x345 JUMP JUMPDEST SWAP3 SWAP2 POP POP JUMP JUMPDEST PUSH0 PUSH20 0xFFFFFFFFFFFFFFFFFFFFFFFFFFFFFFFFFFFFFFFF DUP3 AND SWAP1 POP SWAP2 SWAP1 POP JUMP JUMPDEST PUSH0 PUSH2 0x396 DUP3 PUSH2 0x36D JUMP JUMPDEST SWAP1 POP SWAP2 SWAP1 POP JUMP JUMPDEST PUSH2 0x3A6 DUP2 PUSH2 0x38C JUMP JUMPDEST DUP3 MSTORE POP POP JUMP JUMPDEST PUSH0 PUSH1 0x20 DUP3 ADD SWAP1 POP PUSH2 0x3BF PUSH0 DUP4 ADD DUP5 PUSH2 0x39D JUMP JUMPDEST SWAP3 SWAP2 POP POP JUMP JUMPDEST PUSH0 DUP3 DUP3 MSTORE PUSH1 0x20 DUP3 ADD SWAP1 POP SWAP3 SWAP2 POP POP JUMP JUMPDEST PUSH32 0x4F6E6C7920746865206F776E65722063616E206163636573732E000000000000 PUSH0 DUP3 ADD MSTORE POP JUMP JUMPDEST PUSH0 PUSH2 0x409 PUSH1 0x1A DUP4 PUSH2 0x3C5 JUMP JUMPDEST SWAP2 POP PUSH2 0x414 DUP3 PUSH2 0x3D5 JUMP JUMPDEST PUSH1 0x20 DUP3 ADD SWAP1 POP SWAP2 SWAP1 POP JUMP JUMPDEST PUSH0 PUSH1 0x20 DUP3 ADD SWAP1 POP DUP2 DUP2 SUB PUSH0 DUP4 ADD MSTORE PUSH2 0x436 DUP2 PUSH2 0x3FD JUMP JUMPDEST SWAP1 POP SWAP2 SWAP1 POP JUMP JUMPDEST PUSH32 0x4E487B7100000000000000000000000000000000000000000000000000000000 PUSH0 MSTORE PUSH1 0x1 PUSH1 0x4 MSTORE PUSH1 0x24 PUSH0 REVERT JUMPDEST PUSH32 0x54686520636F6E7472616374206973206E6F74206163746976652E0000000000 PUSH0 DUP3 ADD MSTORE POP JUMP JUMPDEST PUSH0 PUSH2 0x49E PUSH1 0x1B DUP4 PUSH2 0x3C5 JUMP JUMPDEST SWAP2 POP PUSH2 0x4A9 DUP3 PUSH2 0x46A JUMP JUMPDEST PUSH1 0x20 DUP3 ADD SWAP1 POP SWAP2 SWAP1 POP JUMP JUMPDEST PUSH0 PUSH1 0x20 DUP3 ADD SWAP1 POP DUP2 DUP2 SUB PUSH0 DUP4 ADD MSTORE PUSH2 0x4CB DUP2 PUSH2 0x492 JUMP JUMPDEST SWAP1 POP SWAP2 SWAP1 POP JUMP JUMPDEST PUSH32 0x54686520636F6E7472616374206973206163746976652E000000000000000000 PUSH0 DUP3 ADD MSTORE POP JUMP JUMPDEST PUSH0 PUSH2 0x506 PUSH1 0x17 DUP4 PUSH2 0x3C5 JUMP JUMPDEST SWAP2 POP PUSH2 0x511 DUP3 PUSH2 0x4D2 JUMP JUMPDEST PUSH1 0x20 DUP3 ADD SWAP1 POP SWAP2 SWAP1 POP JUMP JUMPDEST PUSH0 PUSH1 0x20 DUP3 ADD SWAP1 POP DUP2 DUP2 SUB PUSH0 DUP4 ADD MSTORE PUSH2 0x533 DUP2 PUSH2 0x4FA JUMP JUMPDEST SWAP1 POP SWAP2 SWAP1 POP JUMP INVALID LOG2 PUSH5 0x6970667358 0x22 SLT KECCAK256 ADDMOD 0xAD 0x2E RETURNDATACOPY JUMPDEST PUSH4 0x32E1E784 0x26 CODECOPY 0xD0 0xB4 0xDE KECCAK256 EXP 0xE5 0xD7 STOP 0xE1 RETURNDATACOPY 0xD0 0xA9 SDIV PUSH18 0x2259C80E845164736F6C634300081A003300 "
				},
				"gasEstimates": {
					"creation": {
						"codeDepositCost": "278400",
						"executionCost": "48897",
						"totalCost": "327297"
					},
					"external": {
						"activate()": "26603",
						"checkStatus()": "2691",
						"deactivate()": "26691",
						"isActive()": "2516",
						"owner()": "2593",
						"verifyOwner()": "2358"
					}
				},
				"methodIdentifiers": {
					"activate()": "0f15f4c0",
					"checkStatus()": "3b7104f2",
					"deactivate()": "51b42b00",
					"isActive()": "22f3e2d4",
					"owner()": "8da5cb5b",
					"verifyOwner()": "33476e36"
				}
			},
			"storageLayout": {
				"storage": [
					{
						"astId": 3,
						"contract": "errors.sol:OwnershipContract",
						"label": "owner",
						"offset": 0,
						"slot": "0",
						"type": "t_address"
					},
					{
						"astId": 5,
						"contract": "errors.sol:OwnershipContract",
						"label": "isActive",
						"offset": 20,
						"slot": "0",
						"type": "t_bool"
					}
				],
				"types": {
					"t_address": {
						"encoding": "inplace",
						"label": "address",
						"numberOfBytes": "20"
					},
					"t_bool": {
						"encoding": "inplace",
						"label": "bool",
						"numberOfBytes": "1"
					}
				}
			},
			"userdoc": {
				"kind": "user",
				"methods": {},
				"version": 1
			}
		}
	}
}